{
  "contractName": "Polls",
  "abi": [
    {
      "constant": true,
      "inputs": [
        {
          "internalType": "uint256",
          "name": "",
          "type": "uint256"
        }
      ],
      "name": "polls",
      "outputs": [
        {
          "internalType": "uint256",
          "name": "id",
          "type": "uint256"
        },
        {
          "internalType": "string",
          "name": "title",
          "type": "string"
        },
        {
          "internalType": "string",
          "name": "date",
          "type": "string"
        },
        {
          "internalType": "string",
          "name": "candidates",
          "type": "string"
        }
      ],
      "payable": false,
      "stateMutability": "view",
      "type": "function"
    },
    {
      "constant": true,
      "inputs": [
        {
          "internalType": "uint256",
          "name": "",
          "type": "uint256"
        }
      ],
      "name": "pollsArray",
      "outputs": [
        {
          "internalType": "uint256",
          "name": "id",
          "type": "uint256"
        },
        {
          "internalType": "string",
          "name": "title",
          "type": "string"
        },
        {
          "internalType": "string",
          "name": "date",
          "type": "string"
        },
        {
          "internalType": "string",
          "name": "candidates",
          "type": "string"
        }
      ],
      "payable": false,
      "stateMutability": "view",
      "type": "function"
    },
    {
      "constant": true,
      "inputs": [],
      "name": "pollsCount",
      "outputs": [
        {
          "internalType": "uint256",
          "name": "",
          "type": "uint256"
        }
      ],
      "payable": false,
      "stateMutability": "view",
      "type": "function"
    },
    {
      "constant": false,
      "inputs": [
        {
          "internalType": "string",
          "name": "_title",
          "type": "string"
        },
        {
          "internalType": "string",
          "name": "_date",
          "type": "string"
        },
        {
          "internalType": "string",
          "name": "_candidates",
          "type": "string"
        }
      ],
      "name": "addPoll",
      "outputs": [],
      "payable": false,
      "stateMutability": "nonpayable",
      "type": "function"
    },
    {
      "constant": true,
      "inputs": [],
      "name": "getCount",
      "outputs": [
        {
          "internalType": "uint256",
          "name": "",
          "type": "uint256"
        }
      ],
      "payable": false,
      "stateMutability": "view",
      "type": "function"
    },
    {
      "constant": false,
      "inputs": [],
      "name": "allPolls",
      "outputs": [
        {
          "components": [
            {
              "internalType": "uint256",
              "name": "id",
              "type": "uint256"
            },
            {
              "internalType": "string",
              "name": "title",
              "type": "string"
            },
            {
              "internalType": "string",
              "name": "date",
              "type": "string"
            },
            {
              "internalType": "string",
              "name": "candidates",
              "type": "string"
            }
          ],
          "internalType": "struct Polls.PollsData[]",
          "name": "",
          "type": "tuple[]"
        }
      ],
      "payable": false,
      "stateMutability": "nonpayable",
      "type": "function"
    }
  ],
  "bytecode": "0x60806040526000805534801561001457600080fd5b50610f1e806100246000396000f3fe608060405234801561001057600080fd5b50600436106100625760003560e01c8063179d760d146100675780634534b99e146100855780639cf1722b146100b8578063a87d942c146100d4578063ac2f0074146100f2578063be82fffe14610125575b600080fd5b61006f610143565b60405161007c9190610d33565b60405180910390f35b61009f600480360361009a9190810190610b5e565b610149565b6040516100af9493929190610d4e565b60405180910390f35b6100d260048036036100cd9190810190610ac7565b61034e565b005b6100dc6103ff565b6040516100e99190610d33565b60405180910390f35b61010c60048036036101079190810190610b5e565b610408565b60405161011c9493929190610d4e565b60405180910390f35b61012d610600565b60405161013a9190610d11565b60405180910390f35b60005481565b6002818154811061015657fe5b9060005260206000209060040201600091509050806000015490806001018054600181600116156101000203166002900480601f0160208091040260200160405190810160405280929190818152602001828054600181600116156101000203166002900480156102085780601f106101dd57610100808354040283529160200191610208565b820191906000526020600020905b8154815290600101906020018083116101eb57829003601f168201915b505050505090806002018054600181600116156101000203166002900480601f0160208091040260200160405190810160405280929190818152602001828054600181600116156101000203166002900480156102a65780601f1061027b576101008083540402835291602001916102a6565b820191906000526020600020905b81548152906001019060200180831161028957829003601f168201915b505050505090806003018054600181600116156101000203166002900480601f0160208091040260200160405190810160405280929190818152602001828054600181600116156101000203166002900480156103445780601f1061031957610100808354040283529160200191610344565b820191906000526020600020905b81548152906001019060200180831161032757829003601f168201915b5050505050905084565b6000808154809291906001019190505550604051806080016040528060005481526020018481526020018381526020018281525060016000805481526020019081526020016000206000820151816000015560208201518160010190805190602001906103bc929190610932565b5060408201518160020190805190602001906103d9929190610932565b5060608201518160030190805190602001906103f6929190610932565b50905050505050565b60008054905090565b6001602052806000526040600020600091509050806000015490806001018054600181600116156101000203166002900480601f0160208091040260200160405190810160405280929190818152602001828054600181600116156101000203166002900480156104ba5780601f1061048f576101008083540402835291602001916104ba565b820191906000526020600020905b81548152906001019060200180831161049d57829003601f168201915b505050505090806002018054600181600116156101000203166002900480601f0160208091040260200160405190810160405280929190818152602001828054600181600116156101000203166002900480156105585780601f1061052d57610100808354040283529160200191610558565b820191906000526020600020905b81548152906001019060200180831161053b57829003601f168201915b505050505090806003018054600181600116156101000203166002900480601f0160208091040260200160405190810160405280929190818152602001828054600181600116156101000203166002900480156105f65780601f106105cb576101008083540402835291602001916105f6565b820191906000526020600020905b8154815290600101906020018083116105d957829003601f168201915b5050505050905084565b606060008090505b6000548110156106e4576002600160008381526020019081526020016000209080600181540180825580915050906001820390600052602060002090600402016000909192909190915060008201548160000155600182018160010190805460018160011615610100020316600290046106839291906109b2565b50600282018160020190805460018160011615610100020316600290046106ab9291906109b2565b50600382018160030190805460018160011615610100020316600290046106d39291906109b2565b505050508080600101915050610608565b506002805480602002602001604051908101604052809291908181526020016000905b82821015610929578382906000526020600020906004020160405180608001604052908160008201548152602001600182018054600181600116156101000203166002900480601f0160208091040260200160405190810160405280929190818152602001828054600181600116156101000203166002900480156107cd5780601f106107a2576101008083540402835291602001916107cd565b820191906000526020600020905b8154815290600101906020018083116107b057829003601f168201915b50505050508152602001600282018054600181600116156101000203166002900480601f01602080910402602001604051908101604052809291908181526020018280546001816001161561010002031660029004801561086f5780601f106108445761010080835404028352916020019161086f565b820191906000526020600020905b81548152906001019060200180831161085257829003601f168201915b50505050508152602001600382018054600181600116156101000203166002900480601f0160208091040260200160405190810160405280929190818152602001828054600181600116156101000203166002900480156109115780601f106108e657610100808354040283529160200191610911565b820191906000526020600020905b8154815290600101906020018083116108f457829003601f168201915b50505050508152505081526020019060010190610707565b50505050905090565b828054600181600116156101000203166002900490600052602060002090601f016020900481019282601f1061097357805160ff19168380011785556109a1565b828001600101855582156109a1579182015b828111156109a0578251825591602001919060010190610985565b5b5090506109ae9190610a39565b5090565b828054600181600116156101000203166002900490600052602060002090601f016020900481019282601f106109eb5780548555610a28565b82800160010185558215610a2857600052602060002091601f016020900482015b82811115610a27578254825591600101919060010190610a0c565b5b509050610a359190610a39565b5090565b610a5b91905b80821115610a57576000816000905550600101610a3f565b5090565b90565b600082601f830112610a6f57600080fd5b8135610a82610a7d82610dd5565b610da8565b91508082526020830160208301858383011115610a9e57600080fd5b610aa9838284610e71565b50505092915050565b600081359050610ac181610ec4565b92915050565b600080600060608486031215610adc57600080fd5b600084013567ffffffffffffffff811115610af657600080fd5b610b0286828701610a5e565b935050602084013567ffffffffffffffff811115610b1f57600080fd5b610b2b86828701610a5e565b925050604084013567ffffffffffffffff811115610b4857600080fd5b610b5486828701610a5e565b9150509250925092565b600060208284031215610b7057600080fd5b6000610b7e84828501610ab2565b91505092915050565b6000610b938383610c82565b905092915050565b6000610ba682610e11565b610bb08185610e34565b935083602082028501610bc285610e01565b8060005b85811015610bfe5784840389528151610bdf8582610b87565b9450610bea83610e27565b925060208a01995050600181019050610bc6565b50829750879550505050505092915050565b6000610c1b82610e1c565b610c258185610e45565b9350610c35818560208601610e80565b610c3e81610eb3565b840191505092915050565b6000610c5482610e1c565b610c5e8185610e56565b9350610c6e818560208601610e80565b610c7781610eb3565b840191505092915050565b6000608083016000830151610c9a6000860182610cf3565b5060208301518482036020860152610cb28282610c10565b91505060408301518482036040860152610ccc8282610c10565b91505060608301518482036060860152610ce68282610c10565b9150508091505092915050565b610cfc81610e67565b82525050565b610d0b81610e67565b82525050565b60006020820190508181036000830152610d2b8184610b9b565b905092915050565b6000602082019050610d486000830184610d02565b92915050565b6000608082019050610d636000830187610d02565b8181036020830152610d758186610c49565b90508181036040830152610d898185610c49565b90508181036060830152610d9d8184610c49565b905095945050505050565b6000604051905081810181811067ffffffffffffffff82111715610dcb57600080fd5b8060405250919050565b600067ffffffffffffffff821115610dec57600080fd5b601f19601f8301169050602081019050919050565b6000819050602082019050919050565b600081519050919050565b600081519050919050565b6000602082019050919050565b600082825260208201905092915050565b600082825260208201905092915050565b600082825260208201905092915050565b6000819050919050565b82818337600083830152505050565b60005b83811015610e9e578082015181840152602081019050610e83565b83811115610ead576000848401525b50505050565b6000601f19601f8301169050919050565b610ecd81610e67565b8114610ed857600080fd5b5056fea365627a7a7231582023562f571ac5bcab7814950e2007af43da4060ce9840097c0f16ca2f3c5ce98c6c6578706572696d656e74616cf564736f6c63430005100040",
  "source": "pragma solidity ^0.5.0;\npragma experimental ABIEncoderV2;\n\ncontract Polls {\n    uint public pollsCount = 0;\n\n    struct PollsData{\n        uint id;\n        string title;\n        string date;\n        string candidates;\n    }\n\n    mapping(uint => PollsData) public polls;\n    PollsData[] public pollsArray;\n\n    function addPoll(\n        string memory _title, \n        string memory _date, \n        string memory _candidates\n    ) public {\n        pollsCount ++;\n        polls[pollsCount] = PollsData(\n            pollsCount, \n            _title, \n            _date, \n            _candidates\n        );\n    }\n\n    function getCount() public view returns (uint) {\n        return pollsCount;\n    }\n\n    function allPolls() public returns (PollsData[] memory) {\n        for(uint i = 0; i < pollsCount; i ++){\n            pollsArray.push(polls[i]);\n        }\n        return pollsArray;\n    }\n\n}",
  "sourcePath": "C:\\Users\\Cde Pidigori\\Pictures\\decentralizedvoting\\decentralizedvoting\\contracts\\Polls.sol",
  "compiler": {
    "name": "solc",
    "version": "0.5.16+commit.9c3226ce.Emscripten.clang"
  },
  "schemaVersion": "3.4.7",
  "updatedAt": "2022-06-08T19:56:55.927Z",
  "networkType": "ethereum",
  "devdoc": {
    "methods": {}
  },
  "userdoc": {
    "methods": {}
  }
}