{
  "contractName": "Users",
  "abi": [
    {
      "constant": true,
      "inputs": [
        {
          "internalType": "uint256",
          "name": "",
          "type": "uint256"
        }
      ],
      "name": "users",
      "outputs": [
        {
          "internalType": "uint256",
          "name": "id",
          "type": "uint256"
        },
        {
          "internalType": "string",
          "name": "firstname",
          "type": "string"
        },
        {
          "internalType": "string",
          "name": "lastname",
          "type": "string"
        },
        {
          "internalType": "string",
          "name": "email",
          "type": "string"
        },
        {
          "internalType": "string",
          "name": "password",
          "type": "string"
        }
      ],
      "payable": false,
      "stateMutability": "view",
      "type": "function"
    },
    {
      "constant": true,
      "inputs": [
        {
          "internalType": "uint256",
          "name": "",
          "type": "uint256"
        }
      ],
      "name": "usersArray",
      "outputs": [
        {
          "internalType": "uint256",
          "name": "id",
          "type": "uint256"
        },
        {
          "internalType": "string",
          "name": "firstname",
          "type": "string"
        },
        {
          "internalType": "string",
          "name": "lastname",
          "type": "string"
        },
        {
          "internalType": "string",
          "name": "email",
          "type": "string"
        },
        {
          "internalType": "string",
          "name": "password",
          "type": "string"
        }
      ],
      "payable": false,
      "stateMutability": "view",
      "type": "function"
    },
    {
      "constant": true,
      "inputs": [],
      "name": "usersCount",
      "outputs": [
        {
          "internalType": "uint256",
          "name": "",
          "type": "uint256"
        }
      ],
      "payable": false,
      "stateMutability": "view",
      "type": "function"
    },
    {
      "constant": false,
      "inputs": [
        {
          "internalType": "string",
          "name": "_firstname",
          "type": "string"
        },
        {
          "internalType": "string",
          "name": "_lastname",
          "type": "string"
        },
        {
          "internalType": "string",
          "name": "_email",
          "type": "string"
        },
        {
          "internalType": "string",
          "name": "_password",
          "type": "string"
        }
      ],
      "name": "addUser",
      "outputs": [],
      "payable": false,
      "stateMutability": "nonpayable",
      "type": "function"
    },
    {
      "constant": true,
      "inputs": [],
      "name": "getCount",
      "outputs": [
        {
          "internalType": "uint256",
          "name": "",
          "type": "uint256"
        }
      ],
      "payable": false,
      "stateMutability": "view",
      "type": "function"
    },
    {
      "constant": false,
      "inputs": [],
      "name": "allUsers",
      "outputs": [
        {
          "components": [
            {
              "internalType": "uint256",
              "name": "id",
              "type": "uint256"
            },
            {
              "internalType": "string",
              "name": "firstname",
              "type": "string"
            },
            {
              "internalType": "string",
              "name": "lastname",
              "type": "string"
            },
            {
              "internalType": "string",
              "name": "email",
              "type": "string"
            },
            {
              "internalType": "string",
              "name": "password",
              "type": "string"
            }
          ],
          "internalType": "struct Users.UsersData[]",
          "name": "",
          "type": "tuple[]"
        }
      ],
      "payable": false,
      "stateMutability": "nonpayable",
      "type": "function"
    }
  ],
  "bytecode": "0x60806040526000805534801561001457600080fd5b506111a5806100246000396000f3fe608060405234801561001057600080fd5b50600436106100625760003560e01c806301cda3ac146100675780632fae35c014610083578063365b98b2146100b75780634918600a146100eb5780636ba13a8214610109578063a87d942c14610127575b600080fd5b610081600480360361007c9190810190610cf3565b610145565b005b61009d60048036036100989190810190610db6565b61021a565b6040516100ae959493929190610fc0565b60405180910390f35b6100d160048036036100cc9190810190610db6565b6104bd565b6040516100e2959493929190610fc0565b60405180910390f35b6100f3610753565b6040516101009190610f83565b60405180910390f35b610111610b4f565b60405161011e9190610fa5565b60405180910390f35b61012f610b55565b60405161013c9190610fa5565b60405180910390f35b60008081548092919060010191905055506040518060a0016040528060005481526020018581526020018481526020018381526020018281525060016000805481526020019081526020016000206000820151816000015560208201518160010190805190602001906101b9929190610b5e565b5060408201518160020190805190602001906101d6929190610b5e565b5060608201518160030190805190602001906101f3929190610b5e565b506080820151816004019080519060200190610210929190610b5e565b5090505050505050565b6002818154811061022757fe5b9060005260206000209060050201600091509050806000015490806001018054600181600116156101000203166002900480601f0160208091040260200160405190810160405280929190818152602001828054600181600116156101000203166002900480156102d95780601f106102ae576101008083540402835291602001916102d9565b820191906000526020600020905b8154815290600101906020018083116102bc57829003601f168201915b505050505090806002018054600181600116156101000203166002900480601f0160208091040260200160405190810160405280929190818152602001828054600181600116156101000203166002900480156103775780601f1061034c57610100808354040283529160200191610377565b820191906000526020600020905b81548152906001019060200180831161035a57829003601f168201915b505050505090806003018054600181600116156101000203166002900480601f0160208091040260200160405190810160405280929190818152602001828054600181600116156101000203166002900480156104155780601f106103ea57610100808354040283529160200191610415565b820191906000526020600020905b8154815290600101906020018083116103f857829003601f168201915b505050505090806004018054600181600116156101000203166002900480601f0160208091040260200160405190810160405280929190818152602001828054600181600116156101000203166002900480156104b35780601f10610488576101008083540402835291602001916104b3565b820191906000526020600020905b81548152906001019060200180831161049657829003601f168201915b5050505050905085565b6001602052806000526040600020600091509050806000015490806001018054600181600116156101000203166002900480601f01602080910402602001604051908101604052809291908181526020018280546001816001161561010002031660029004801561056f5780601f106105445761010080835404028352916020019161056f565b820191906000526020600020905b81548152906001019060200180831161055257829003601f168201915b505050505090806002018054600181600116156101000203166002900480601f01602080910402602001604051908101604052809291908181526020018280546001816001161561010002031660029004801561060d5780601f106105e25761010080835404028352916020019161060d565b820191906000526020600020905b8154815290600101906020018083116105f057829003601f168201915b505050505090806003018054600181600116156101000203166002900480601f0160208091040260200160405190810160405280929190818152602001828054600181600116156101000203166002900480156106ab5780601f10610680576101008083540402835291602001916106ab565b820191906000526020600020905b81548152906001019060200180831161068e57829003601f168201915b505050505090806004018054600181600116156101000203166002900480601f0160208091040260200160405190810160405280929190818152602001828054600181600116156101000203166002900480156107495780601f1061071e57610100808354040283529160200191610749565b820191906000526020600020905b81548152906001019060200180831161072c57829003601f168201915b5050505050905085565b606060008090505b60005481101561085f576002600160008381526020019081526020016000209080600181540180825580915050906001820390600052602060002090600502016000909192909190915060008201548160000155600182018160010190805460018160011615610100020316600290046107d6929190610bde565b50600282018160020190805460018160011615610100020316600290046107fe929190610bde565b5060038201816003019080546001816001161561010002031660029004610826929190610bde565b506004820181600401908054600181600116156101000203166002900461084e929190610bde565b50505050808060010191505061075b565b506002805480602002602001604051908101604052809291908181526020016000905b82821015610b4657838290600052602060002090600502016040518060a001604052908160008201548152602001600182018054600181600116156101000203166002900480601f0160208091040260200160405190810160405280929190818152602001828054600181600116156101000203166002900480156109485780601f1061091d57610100808354040283529160200191610948565b820191906000526020600020905b81548152906001019060200180831161092b57829003601f168201915b50505050508152602001600282018054600181600116156101000203166002900480601f0160208091040260200160405190810160405280929190818152602001828054600181600116156101000203166002900480156109ea5780601f106109bf576101008083540402835291602001916109ea565b820191906000526020600020905b8154815290600101906020018083116109cd57829003601f168201915b50505050508152602001600382018054600181600116156101000203166002900480601f016020809104026020016040519081016040528092919081815260200182805460018160011615610100020316600290048015610a8c5780601f10610a6157610100808354040283529160200191610a8c565b820191906000526020600020905b815481529060010190602001808311610a6f57829003601f168201915b50505050508152602001600482018054600181600116156101000203166002900480601f016020809104026020016040519081016040528092919081815260200182805460018160011615610100020316600290048015610b2e5780601f10610b0357610100808354040283529160200191610b2e565b820191906000526020600020905b815481529060010190602001808311610b1157829003601f168201915b50505050508152505081526020019060010190610882565b50505050905090565b60005481565b60008054905090565b828054600181600116156101000203166002900490600052602060002090601f016020900481019282601f10610b9f57805160ff1916838001178555610bcd565b82800160010185558215610bcd579182015b82811115610bcc578251825591602001919060010190610bb1565b5b509050610bda9190610c65565b5090565b828054600181600116156101000203166002900490600052602060002090601f016020900481019282601f10610c175780548555610c54565b82800160010185558215610c5457600052602060002091601f016020900482015b82811115610c53578254825591600101919060010190610c38565b5b509050610c619190610c65565b5090565b610c8791905b80821115610c83576000816000905550600101610c6b565b5090565b90565b600082601f830112610c9b57600080fd5b8135610cae610ca98261105c565b61102f565b91508082526020830160208301858383011115610cca57600080fd5b610cd58382846110f8565b50505092915050565b600081359050610ced8161114b565b92915050565b60008060008060808587031215610d0957600080fd5b600085013567ffffffffffffffff811115610d2357600080fd5b610d2f87828801610c8a565b945050602085013567ffffffffffffffff811115610d4c57600080fd5b610d5887828801610c8a565b935050604085013567ffffffffffffffff811115610d7557600080fd5b610d8187828801610c8a565b925050606085013567ffffffffffffffff811115610d9e57600080fd5b610daa87828801610c8a565b91505092959194509250565b600060208284031215610dc857600080fd5b6000610dd684828501610cde565b91505092915050565b6000610deb8383610eda565b905092915050565b6000610dfe82611098565b610e0881856110bb565b935083602082028501610e1a85611088565b8060005b85811015610e565784840389528151610e378582610ddf565b9450610e42836110ae565b925060208a01995050600181019050610e1e565b50829750879550505050505092915050565b6000610e73826110a3565b610e7d81856110cc565b9350610e8d818560208601611107565b610e968161113a565b840191505092915050565b6000610eac826110a3565b610eb681856110dd565b9350610ec6818560208601611107565b610ecf8161113a565b840191505092915050565b600060a083016000830151610ef26000860182610f65565b5060208301518482036020860152610f0a8282610e68565b91505060408301518482036040860152610f248282610e68565b91505060608301518482036060860152610f3e8282610e68565b91505060808301518482036080860152610f588282610e68565b9150508091505092915050565b610f6e816110ee565b82525050565b610f7d816110ee565b82525050565b60006020820190508181036000830152610f9d8184610df3565b905092915050565b6000602082019050610fba6000830184610f74565b92915050565b600060a082019050610fd56000830188610f74565b8181036020830152610fe78187610ea1565b90508181036040830152610ffb8186610ea1565b9050818103606083015261100f8185610ea1565b905081810360808301526110238184610ea1565b90509695505050505050565b6000604051905081810181811067ffffffffffffffff8211171561105257600080fd5b8060405250919050565b600067ffffffffffffffff82111561107357600080fd5b601f19601f8301169050602081019050919050565b6000819050602082019050919050565b600081519050919050565b600081519050919050565b6000602082019050919050565b600082825260208201905092915050565b600082825260208201905092915050565b600082825260208201905092915050565b6000819050919050565b82818337600083830152505050565b60005b8381101561112557808201518184015260208101905061110a565b83811115611134576000848401525b50505050565b6000601f19601f8301169050919050565b611154816110ee565b811461115f57600080fd5b5056fea365627a7a7231582023dee2bb1a1d709ff20dc1e396d9dd6edf2a69cc602aa6e1ac8bbfbbbc4779726c6578706572696d656e74616cf564736f6c63430005100040",
  "source": "pragma solidity ^0.5.0;\npragma experimental ABIEncoderV2;\n\ncontract Users {\n    uint public usersCount = 0;\n\n    struct UsersData{\n        uint id;\n        string firstname;\n        string lastname;\n        string email;\n        string password;\n    }\n\n    mapping(uint => UsersData) public users;\n    UsersData[] public usersArray;\n\n    function addUser(\n        string memory _firstname, \n        string memory _lastname, \n        string memory _email,\n        string memory _password\n    ) public {\n        usersCount ++;\n        users[usersCount] = UsersData(\n            usersCount, \n            _firstname, \n            _lastname, \n            _email, \n            _password\n        );\n    }\n\n    function getCount() public view returns (uint) {\n        return usersCount;\n    }\n\n    function allUsers() public returns (UsersData[] memory) {\n        for(uint i = 0; i < usersCount; i ++){\n            usersArray.push(users[i]);\n        }\n        return usersArray;\n    }\n\n}",
  "sourcePath": "C:\\Users\\Cde Pidigori\\Pictures\\decentralizedvoting\\decentralizedvoting\\contracts\\Users.sol",
  "compiler": {
    "name": "solc",
    "version": "0.5.16+commit.9c3226ce.Emscripten.clang"
  },
  "schemaVersion": "3.4.7",
  "updatedAt": "2022-06-08T19:56:55.934Z",
  "networkType": "ethereum",
  "devdoc": {
    "methods": {}
  },
  "userdoc": {
    "methods": {}
  }
}