{
  "contractName": "Votes",
  "abi": [
    {
      "constant": true,
      "inputs": [
        {
          "internalType": "uint256",
          "name": "",
          "type": "uint256"
        }
      ],
      "name": "votes",
      "outputs": [
        {
          "internalType": "uint256",
          "name": "id",
          "type": "uint256"
        },
        {
          "internalType": "string",
          "name": "poll_id",
          "type": "string"
        },
        {
          "internalType": "string",
          "name": "voter_id",
          "type": "string"
        },
        {
          "internalType": "string",
          "name": "candidate",
          "type": "string"
        }
      ],
      "payable": false,
      "stateMutability": "view",
      "type": "function"
    },
    {
      "constant": true,
      "inputs": [
        {
          "internalType": "uint256",
          "name": "",
          "type": "uint256"
        }
      ],
      "name": "votesArray",
      "outputs": [
        {
          "internalType": "uint256",
          "name": "id",
          "type": "uint256"
        },
        {
          "internalType": "string",
          "name": "poll_id",
          "type": "string"
        },
        {
          "internalType": "string",
          "name": "voter_id",
          "type": "string"
        },
        {
          "internalType": "string",
          "name": "candidate",
          "type": "string"
        }
      ],
      "payable": false,
      "stateMutability": "view",
      "type": "function"
    },
    {
      "constant": true,
      "inputs": [],
      "name": "votesCount",
      "outputs": [
        {
          "internalType": "uint256",
          "name": "",
          "type": "uint256"
        }
      ],
      "payable": false,
      "stateMutability": "view",
      "type": "function"
    },
    {
      "constant": false,
      "inputs": [
        {
          "internalType": "string",
          "name": "_poll_id",
          "type": "string"
        },
        {
          "internalType": "string",
          "name": "_voter_id",
          "type": "string"
        },
        {
          "internalType": "string",
          "name": "_candidate",
          "type": "string"
        }
      ],
      "name": "addVote",
      "outputs": [],
      "payable": false,
      "stateMutability": "nonpayable",
      "type": "function"
    },
    {
      "constant": true,
      "inputs": [],
      "name": "getCount",
      "outputs": [
        {
          "internalType": "uint256",
          "name": "",
          "type": "uint256"
        }
      ],
      "payable": false,
      "stateMutability": "view",
      "type": "function"
    },
    {
      "constant": false,
      "inputs": [],
      "name": "allVotes",
      "outputs": [
        {
          "components": [
            {
              "internalType": "uint256",
              "name": "id",
              "type": "uint256"
            },
            {
              "internalType": "string",
              "name": "poll_id",
              "type": "string"
            },
            {
              "internalType": "string",
              "name": "voter_id",
              "type": "string"
            },
            {
              "internalType": "string",
              "name": "candidate",
              "type": "string"
            }
          ],
          "internalType": "struct Votes.VotesData[]",
          "name": "",
          "type": "tuple[]"
        }
      ],
      "payable": false,
      "stateMutability": "nonpayable",
      "type": "function"
    }
  ],
  "bytecode": "0x60806040526000805534801561001457600080fd5b50610f1e806100246000396000f3fe608060405234801561001057600080fd5b50600436106100625760003560e01c80635df813301461006757806377a53e0a1461009a578063804a542e146100cd5780638778b27d146100eb578063a87d942c14610109578063b8ee029614610127575b600080fd5b610081600480360361007c9190810190610b5e565b610143565b6040516100919493929190610d4e565b60405180910390f35b6100b460048036036100af9190810190610b5e565b61033b565b6040516100c49493929190610d4e565b60405180910390f35b6100d5610540565b6040516100e29190610d11565b60405180910390f35b6100f3610872565b6040516101009190610d33565b60405180910390f35b610111610878565b60405161011e9190610d33565b60405180910390f35b610141600480360361013c9190810190610ac7565b610881565b005b6001602052806000526040600020600091509050806000015490806001018054600181600116156101000203166002900480601f0160208091040260200160405190810160405280929190818152602001828054600181600116156101000203166002900480156101f55780601f106101ca576101008083540402835291602001916101f5565b820191906000526020600020905b8154815290600101906020018083116101d857829003601f168201915b505050505090806002018054600181600116156101000203166002900480601f0160208091040260200160405190810160405280929190818152602001828054600181600116156101000203166002900480156102935780601f1061026857610100808354040283529160200191610293565b820191906000526020600020905b81548152906001019060200180831161027657829003601f168201915b505050505090806003018054600181600116156101000203166002900480601f0160208091040260200160405190810160405280929190818152602001828054600181600116156101000203166002900480156103315780601f1061030657610100808354040283529160200191610331565b820191906000526020600020905b81548152906001019060200180831161031457829003601f168201915b5050505050905084565b6002818154811061034857fe5b9060005260206000209060040201600091509050806000015490806001018054600181600116156101000203166002900480601f0160208091040260200160405190810160405280929190818152602001828054600181600116156101000203166002900480156103fa5780601f106103cf576101008083540402835291602001916103fa565b820191906000526020600020905b8154815290600101906020018083116103dd57829003601f168201915b505050505090806002018054600181600116156101000203166002900480601f0160208091040260200160405190810160405280929190818152602001828054600181600116156101000203166002900480156104985780601f1061046d57610100808354040283529160200191610498565b820191906000526020600020905b81548152906001019060200180831161047b57829003601f168201915b505050505090806003018054600181600116156101000203166002900480601f0160208091040260200160405190810160405280929190818152602001828054600181600116156101000203166002900480156105365780601f1061050b57610100808354040283529160200191610536565b820191906000526020600020905b81548152906001019060200180831161051957829003601f168201915b5050505050905084565b606060008090505b600054811015610624576002600160008381526020019081526020016000209080600181540180825580915050906001820390600052602060002090600402016000909192909190915060008201548160000155600182018160010190805460018160011615610100020316600290046105c3929190610932565b50600282018160020190805460018160011615610100020316600290046105eb929190610932565b5060038201816003019080546001816001161561010002031660029004610613929190610932565b505050508080600101915050610548565b506002805480602002602001604051908101604052809291908181526020016000905b82821015610869578382906000526020600020906004020160405180608001604052908160008201548152602001600182018054600181600116156101000203166002900480601f01602080910402602001604051908101604052809291908181526020018280546001816001161561010002031660029004801561070d5780601f106106e25761010080835404028352916020019161070d565b820191906000526020600020905b8154815290600101906020018083116106f057829003601f168201915b50505050508152602001600282018054600181600116156101000203166002900480601f0160208091040260200160405190810160405280929190818152602001828054600181600116156101000203166002900480156107af5780601f10610784576101008083540402835291602001916107af565b820191906000526020600020905b81548152906001019060200180831161079257829003601f168201915b50505050508152602001600382018054600181600116156101000203166002900480601f0160208091040260200160405190810160405280929190818152602001828054600181600116156101000203166002900480156108515780601f1061082657610100808354040283529160200191610851565b820191906000526020600020905b81548152906001019060200180831161083457829003601f168201915b50505050508152505081526020019060010190610647565b50505050905090565b60005481565b60008054905090565b6000808154809291906001019190505550604051806080016040528060005481526020018481526020018381526020018281525060016000805481526020019081526020016000206000820151816000015560208201518160010190805190602001906108ef9291906109b9565b50604082015181600201908051906020019061090c9291906109b9565b5060608201518160030190805190602001906109299291906109b9565b50905050505050565b828054600181600116156101000203166002900490600052602060002090601f016020900481019282601f1061096b57805485556109a8565b828001600101855582156109a857600052602060002091601f016020900482015b828111156109a757825482559160010191906001019061098c565b5b5090506109b59190610a39565b5090565b828054600181600116156101000203166002900490600052602060002090601f016020900481019282601f106109fa57805160ff1916838001178555610a28565b82800160010185558215610a28579182015b82811115610a27578251825591602001919060010190610a0c565b5b509050610a359190610a39565b5090565b610a5b91905b80821115610a57576000816000905550600101610a3f565b5090565b90565b600082601f830112610a6f57600080fd5b8135610a82610a7d82610dd5565b610da8565b91508082526020830160208301858383011115610a9e57600080fd5b610aa9838284610e71565b50505092915050565b600081359050610ac181610ec4565b92915050565b600080600060608486031215610adc57600080fd5b600084013567ffffffffffffffff811115610af657600080fd5b610b0286828701610a5e565b935050602084013567ffffffffffffffff811115610b1f57600080fd5b610b2b86828701610a5e565b925050604084013567ffffffffffffffff811115610b4857600080fd5b610b5486828701610a5e565b9150509250925092565b600060208284031215610b7057600080fd5b6000610b7e84828501610ab2565b91505092915050565b6000610b938383610c82565b905092915050565b6000610ba682610e11565b610bb08185610e34565b935083602082028501610bc285610e01565b8060005b85811015610bfe5784840389528151610bdf8582610b87565b9450610bea83610e27565b925060208a01995050600181019050610bc6565b50829750879550505050505092915050565b6000610c1b82610e1c565b610c258185610e45565b9350610c35818560208601610e80565b610c3e81610eb3565b840191505092915050565b6000610c5482610e1c565b610c5e8185610e56565b9350610c6e818560208601610e80565b610c7781610eb3565b840191505092915050565b6000608083016000830151610c9a6000860182610cf3565b5060208301518482036020860152610cb28282610c10565b91505060408301518482036040860152610ccc8282610c10565b91505060608301518482036060860152610ce68282610c10565b9150508091505092915050565b610cfc81610e67565b82525050565b610d0b81610e67565b82525050565b60006020820190508181036000830152610d2b8184610b9b565b905092915050565b6000602082019050610d486000830184610d02565b92915050565b6000608082019050610d636000830187610d02565b8181036020830152610d758186610c49565b90508181036040830152610d898185610c49565b90508181036060830152610d9d8184610c49565b905095945050505050565b6000604051905081810181811067ffffffffffffffff82111715610dcb57600080fd5b8060405250919050565b600067ffffffffffffffff821115610dec57600080fd5b601f19601f8301169050602081019050919050565b6000819050602082019050919050565b600081519050919050565b600081519050919050565b6000602082019050919050565b600082825260208201905092915050565b600082825260208201905092915050565b600082825260208201905092915050565b6000819050919050565b82818337600083830152505050565b60005b83811015610e9e578082015181840152602081019050610e83565b83811115610ead576000848401525b50505050565b6000601f19601f8301169050919050565b610ecd81610e67565b8114610ed857600080fd5b5056fea365627a7a7231582089400bc8942a72db33ea18a5950d6b9bfa2a9f7b52c17f7977558cc00064b6da6c6578706572696d656e74616cf564736f6c63430005100040",
  "source": "pragma solidity ^0.5.0;\npragma experimental ABIEncoderV2;\n\ncontract Votes {\n    uint public votesCount = 0;\n\n    struct VotesData{\n        uint id;\n        string poll_id;\n        string voter_id;\n        string candidate;\n    }\n\n    mapping(uint => VotesData) public votes;\n    VotesData[] public votesArray;\n\n    function addVote(\n        string memory _poll_id,\n        string memory _voter_id,\n        string memory _candidate\n    ) public {\n        votesCount ++;\n        votes[votesCount] = VotesData(\n            votesCount, \n            _poll_id, \n            _voter_id,\n            _candidate\n        );\n    }\n\n    function getCount() public view returns (uint) {\n        return votesCount;\n    }\n\n    function allVotes() public returns (VotesData[] memory) {\n        for(uint i = 0; i < votesCount; i ++){\n            votesArray.push(votes[i]);\n        }\n        return votesArray;\n    }\n\n}",
  "sourcePath": "C:\\Users\\Cde Pidigori\\Pictures\\decentralizedvoting\\decentralizedvoting\\contracts\\Votes.sol",
  "compiler": {
    "name": "solc",
    "version": "0.5.16+commit.9c3226ce.Emscripten.clang"
  },
  "schemaVersion": "3.4.7",
  "updatedAt": "2022-06-08T19:56:55.946Z",
  "networkType": "ethereum",
  "devdoc": {
    "methods": {}
  },
  "userdoc": {
    "methods": {}
  }
}