{
  "contractName": "Voters",
  "abi": [
    {
      "constant": true,
      "inputs": [
        {
          "internalType": "uint256",
          "name": "",
          "type": "uint256"
        }
      ],
      "name": "voters",
      "outputs": [
        {
          "internalType": "uint256",
          "name": "id",
          "type": "uint256"
        },
        {
          "internalType": "string",
          "name": "firstname",
          "type": "string"
        },
        {
          "internalType": "string",
          "name": "lastname",
          "type": "string"
        },
        {
          "internalType": "string",
          "name": "id_number",
          "type": "string"
        },
        {
          "internalType": "string",
          "name": "phonenumber",
          "type": "string"
        },
        {
          "internalType": "string",
          "name": "home_address",
          "type": "string"
        },
        {
          "internalType": "string",
          "name": "image",
          "type": "string"
        },
        {
          "internalType": "string",
          "name": "user_id",
          "type": "string"
        }
      ],
      "payable": false,
      "stateMutability": "view",
      "type": "function"
    },
    {
      "constant": true,
      "inputs": [
        {
          "internalType": "uint256",
          "name": "",
          "type": "uint256"
        }
      ],
      "name": "votersArray",
      "outputs": [
        {
          "internalType": "uint256",
          "name": "id",
          "type": "uint256"
        },
        {
          "internalType": "string",
          "name": "firstname",
          "type": "string"
        },
        {
          "internalType": "string",
          "name": "lastname",
          "type": "string"
        },
        {
          "internalType": "string",
          "name": "id_number",
          "type": "string"
        },
        {
          "internalType": "string",
          "name": "phonenumber",
          "type": "string"
        },
        {
          "internalType": "string",
          "name": "home_address",
          "type": "string"
        },
        {
          "internalType": "string",
          "name": "image",
          "type": "string"
        },
        {
          "internalType": "string",
          "name": "user_id",
          "type": "string"
        }
      ],
      "payable": false,
      "stateMutability": "view",
      "type": "function"
    },
    {
      "constant": true,
      "inputs": [],
      "name": "votersCount",
      "outputs": [
        {
          "internalType": "uint256",
          "name": "",
          "type": "uint256"
        }
      ],
      "payable": false,
      "stateMutability": "view",
      "type": "function"
    },
    {
      "constant": false,
      "inputs": [
        {
          "internalType": "string",
          "name": "_firstname",
          "type": "string"
        },
        {
          "internalType": "string",
          "name": "_lastname",
          "type": "string"
        },
        {
          "internalType": "string",
          "name": "_id_number",
          "type": "string"
        },
        {
          "internalType": "string",
          "name": "_phonenumber",
          "type": "string"
        },
        {
          "internalType": "string",
          "name": "_home_address",
          "type": "string"
        },
        {
          "internalType": "string",
          "name": "_image",
          "type": "string"
        },
        {
          "internalType": "string",
          "name": "_user_id",
          "type": "string"
        }
      ],
      "name": "addVoter",
      "outputs": [],
      "payable": false,
      "stateMutability": "nonpayable",
      "type": "function"
    },
    {
      "constant": true,
      "inputs": [],
      "name": "getCount",
      "outputs": [
        {
          "internalType": "uint256",
          "name": "",
          "type": "uint256"
        }
      ],
      "payable": false,
      "stateMutability": "view",
      "type": "function"
    },
    {
      "constant": false,
      "inputs": [],
      "name": "allVoters",
      "outputs": [
        {
          "components": [
            {
              "internalType": "uint256",
              "name": "id",
              "type": "uint256"
            },
            {
              "internalType": "string",
              "name": "firstname",
              "type": "string"
            },
            {
              "internalType": "string",
              "name": "lastname",
              "type": "string"
            },
            {
              "internalType": "string",
              "name": "id_number",
              "type": "string"
            },
            {
              "internalType": "string",
              "name": "phonenumber",
              "type": "string"
            },
            {
              "internalType": "string",
              "name": "home_address",
              "type": "string"
            },
            {
              "internalType": "string",
              "name": "image",
              "type": "string"
            },
            {
              "internalType": "string",
              "name": "user_id",
              "type": "string"
            }
          ],
          "internalType": "struct Voters.VotersData[]",
          "name": "",
          "type": "tuple[]"
        }
      ],
      "payable": false,
      "stateMutability": "nonpayable",
      "type": "function"
    }
  ],
  "bytecode": "0x60806040526000805534801561001457600080fd5b5061193d806100246000396000f3fe608060405234801561001057600080fd5b50600436106100625760003560e01c806353da4247146100675780638357e7451461009e57806398c07938146100ba578063a87d942c146100d8578063da58c7d9146100f6578063f9e7284f1461012d575b600080fd5b610081600480360361007c91908101906114bf565b61014b565b604051610095989796959493929190611718565b60405180910390f35b6100b860048036036100b39190810190611379565b6105c8565b005b6100c261070a565b6040516100cf91906116fd565b60405180910390f35b6100e0610710565b6040516100ed91906116fd565b60405180910390f35b610110600480360361010b91908101906114bf565b610719565b604051610124989796959493929190611718565b60405180910390f35b610135610b89565b60405161014291906116db565b60405180910390f35b6002818154811061015857fe5b9060005260206000209060080201600091509050806000015490806001018054600181600116156101000203166002900480601f01602080910402602001604051908101604052809291908181526020018280546001816001161561010002031660029004801561020a5780601f106101df5761010080835404028352916020019161020a565b820191906000526020600020905b8154815290600101906020018083116101ed57829003601f168201915b505050505090806002018054600181600116156101000203166002900480601f0160208091040260200160405190810160405280929190818152602001828054600181600116156101000203166002900480156102a85780601f1061027d576101008083540402835291602001916102a8565b820191906000526020600020905b81548152906001019060200180831161028b57829003601f168201915b505050505090806003018054600181600116156101000203166002900480601f0160208091040260200160405190810160405280929190818152602001828054600181600116156101000203166002900480156103465780601f1061031b57610100808354040283529160200191610346565b820191906000526020600020905b81548152906001019060200180831161032957829003601f168201915b505050505090806004018054600181600116156101000203166002900480601f0160208091040260200160405190810160405280929190818152602001828054600181600116156101000203166002900480156103e45780601f106103b9576101008083540402835291602001916103e4565b820191906000526020600020905b8154815290600101906020018083116103c757829003601f168201915b505050505090806005018054600181600116156101000203166002900480601f0160208091040260200160405190810160405280929190818152602001828054600181600116156101000203166002900480156104825780601f1061045757610100808354040283529160200191610482565b820191906000526020600020905b81548152906001019060200180831161046557829003601f168201915b505050505090806006018054600181600116156101000203166002900480601f0160208091040260200160405190810160405280929190818152602001828054600181600116156101000203166002900480156105205780601f106104f557610100808354040283529160200191610520565b820191906000526020600020905b81548152906001019060200180831161050357829003601f168201915b505050505090806007018054600181600116156101000203166002900480601f0160208091040260200160405190810160405280929190818152602001828054600181600116156101000203166002900480156105be5780601f10610593576101008083540402835291602001916105be565b820191906000526020600020905b8154815290600101906020018083116105a157829003601f168201915b5050505050905088565b6000808154809291906001019190505550604051806101000160405280600054815260200188815260200187815260200186815260200185815260200184815260200183815260200182815250600160008054815260200190815260200160002060008201518160000155602082015181600101908051906020019061064f9291906111e4565b50604082015181600201908051906020019061066c9291906111e4565b5060608201518160030190805190602001906106899291906111e4565b5060808201518160040190805190602001906106a69291906111e4565b5060a08201518160050190805190602001906106c39291906111e4565b5060c08201518160060190805190602001906106e09291906111e4565b5060e08201518160070190805190602001906106fd9291906111e4565b5090505050505050505050565b60005481565b60008054905090565b6001602052806000526040600020600091509050806000015490806001018054600181600116156101000203166002900480601f0160208091040260200160405190810160405280929190818152602001828054600181600116156101000203166002900480156107cb5780601f106107a0576101008083540402835291602001916107cb565b820191906000526020600020905b8154815290600101906020018083116107ae57829003601f168201915b505050505090806002018054600181600116156101000203166002900480601f0160208091040260200160405190810160405280929190818152602001828054600181600116156101000203166002900480156108695780601f1061083e57610100808354040283529160200191610869565b820191906000526020600020905b81548152906001019060200180831161084c57829003601f168201915b505050505090806003018054600181600116156101000203166002900480601f0160208091040260200160405190810160405280929190818152602001828054600181600116156101000203166002900480156109075780601f106108dc57610100808354040283529160200191610907565b820191906000526020600020905b8154815290600101906020018083116108ea57829003601f168201915b505050505090806004018054600181600116156101000203166002900480601f0160208091040260200160405190810160405280929190818152602001828054600181600116156101000203166002900480156109a55780601f1061097a576101008083540402835291602001916109a5565b820191906000526020600020905b81548152906001019060200180831161098857829003601f168201915b505050505090806005018054600181600116156101000203166002900480601f016020809104026020016040519081016040528092919081815260200182805460018160011615610100020316600290048015610a435780601f10610a1857610100808354040283529160200191610a43565b820191906000526020600020905b815481529060010190602001808311610a2657829003601f168201915b505050505090806006018054600181600116156101000203166002900480601f016020809104026020016040519081016040528092919081815260200182805460018160011615610100020316600290048015610ae15780601f10610ab657610100808354040283529160200191610ae1565b820191906000526020600020905b815481529060010190602001808311610ac457829003601f168201915b505050505090806007018054600181600116156101000203166002900480601f016020809104026020016040519081016040528092919081815260200182805460018160011615610100020316600290048015610b7f5780601f10610b5457610100808354040283529160200191610b7f565b820191906000526020600020905b815481529060010190602001808311610b6257829003601f168201915b5050505050905088565b606060008090505b600054811015610d0d57600260016000838152602001908152602001600020908060018154018082558091505090600182039060005260206000209060080201600090919290919091506000820154816000015560018201816001019080546001816001161561010002031660029004610c0c929190611264565b5060028201816002019080546001816001161561010002031660029004610c34929190611264565b5060038201816003019080546001816001161561010002031660029004610c5c929190611264565b5060048201816004019080546001816001161561010002031660029004610c84929190611264565b5060058201816005019080546001816001161561010002031660029004610cac929190611264565b5060068201816006019080546001816001161561010002031660029004610cd4929190611264565b5060078201816007019080546001816001161561010002031660029004610cfc929190611264565b505050508080600101915050610b91565b506002805480602002602001604051908101604052809291908181526020016000905b828210156111db57838290600052602060002090600802016040518061010001604052908160008201548152602001600182018054600181600116156101000203166002900480601f016020809104026020016040519081016040528092919081815260200182805460018160011615610100020316600290048015610df75780601f10610dcc57610100808354040283529160200191610df7565b820191906000526020600020905b815481529060010190602001808311610dda57829003601f168201915b50505050508152602001600282018054600181600116156101000203166002900480601f016020809104026020016040519081016040528092919081815260200182805460018160011615610100020316600290048015610e995780601f10610e6e57610100808354040283529160200191610e99565b820191906000526020600020905b815481529060010190602001808311610e7c57829003601f168201915b50505050508152602001600382018054600181600116156101000203166002900480601f016020809104026020016040519081016040528092919081815260200182805460018160011615610100020316600290048015610f3b5780601f10610f1057610100808354040283529160200191610f3b565b820191906000526020600020905b815481529060010190602001808311610f1e57829003601f168201915b50505050508152602001600482018054600181600116156101000203166002900480601f016020809104026020016040519081016040528092919081815260200182805460018160011615610100020316600290048015610fdd5780601f10610fb257610100808354040283529160200191610fdd565b820191906000526020600020905b815481529060010190602001808311610fc057829003601f168201915b50505050508152602001600582018054600181600116156101000203166002900480601f01602080910402602001604051908101604052809291908181526020018280546001816001161561010002031660029004801561107f5780601f106110545761010080835404028352916020019161107f565b820191906000526020600020905b81548152906001019060200180831161106257829003601f168201915b50505050508152602001600682018054600181600116156101000203166002900480601f0160208091040260200160405190810160405280929190818152602001828054600181600116156101000203166002900480156111215780601f106110f657610100808354040283529160200191611121565b820191906000526020600020905b81548152906001019060200180831161110457829003601f168201915b50505050508152602001600782018054600181600116156101000203166002900480601f0160208091040260200160405190810160405280929190818152602001828054600181600116156101000203166002900480156111c35780601f10611198576101008083540402835291602001916111c3565b820191906000526020600020905b8154815290600101906020018083116111a657829003601f168201915b50505050508152505081526020019060010190610d30565b50505050905090565b828054600181600116156101000203166002900490600052602060002090601f016020900481019282601f1061122557805160ff1916838001178555611253565b82800160010185558215611253579182015b82811115611252578251825591602001919060010190611237565b5b50905061126091906112eb565b5090565b828054600181600116156101000203166002900490600052602060002090601f016020900481019282601f1061129d57805485556112da565b828001600101855582156112da57600052602060002091601f016020900482015b828111156112d95782548255916001019190600101906112be565b5b5090506112e791906112eb565b5090565b61130d91905b808211156113095760008160009055506001016112f1565b5090565b90565b600082601f83011261132157600080fd5b813561133461132f826117f4565b6117c7565b9150808252602083016020830185838301111561135057600080fd5b61135b838284611890565b50505092915050565b600081359050611373816118e3565b92915050565b600080600080600080600060e0888a03121561139457600080fd5b600088013567ffffffffffffffff8111156113ae57600080fd5b6113ba8a828b01611310565b975050602088013567ffffffffffffffff8111156113d757600080fd5b6113e38a828b01611310565b965050604088013567ffffffffffffffff81111561140057600080fd5b61140c8a828b01611310565b955050606088013567ffffffffffffffff81111561142957600080fd5b6114358a828b01611310565b945050608088013567ffffffffffffffff81111561145257600080fd5b61145e8a828b01611310565b93505060a088013567ffffffffffffffff81111561147b57600080fd5b6114878a828b01611310565b92505060c088013567ffffffffffffffff8111156114a457600080fd5b6114b08a828b01611310565b91505092959891949750929550565b6000602082840312156114d157600080fd5b60006114df84828501611364565b91505092915050565b60006114f483836115e3565b905092915050565b600061150782611830565b6115118185611853565b93508360208202850161152385611820565b8060005b8581101561155f578484038952815161154085826114e8565b945061154b83611846565b925060208a01995050600181019050611527565b50829750879550505050505092915050565b600061157c8261183b565b6115868185611864565b935061159681856020860161189f565b61159f816118d2565b840191505092915050565b60006115b58261183b565b6115bf8185611875565b93506115cf81856020860161189f565b6115d8816118d2565b840191505092915050565b6000610100830160008301516115fc60008601826116bd565b50602083015184820360208601526116148282611571565b9150506040830151848203604086015261162e8282611571565b915050606083015184820360608601526116488282611571565b915050608083015184820360808601526116628282611571565b91505060a083015184820360a086015261167c8282611571565b91505060c083015184820360c08601526116968282611571565b91505060e083015184820360e08601526116b08282611571565b9150508091505092915050565b6116c681611886565b82525050565b6116d581611886565b82525050565b600060208201905081810360008301526116f581846114fc565b905092915050565b600060208201905061171260008301846116cc565b92915050565b60006101008201905061172e600083018b6116cc565b8181036020830152611740818a6115aa565b9050818103604083015261175481896115aa565b9050818103606083015261176881886115aa565b9050818103608083015261177c81876115aa565b905081810360a083015261179081866115aa565b905081810360c08301526117a481856115aa565b905081810360e08301526117b881846115aa565b90509998505050505050505050565b6000604051905081810181811067ffffffffffffffff821117156117ea57600080fd5b8060405250919050565b600067ffffffffffffffff82111561180b57600080fd5b601f19601f8301169050602081019050919050565b6000819050602082019050919050565b600081519050919050565b600081519050919050565b6000602082019050919050565b600082825260208201905092915050565b600082825260208201905092915050565b600082825260208201905092915050565b6000819050919050565b82818337600083830152505050565b60005b838110156118bd5780820151818401526020810190506118a2565b838111156118cc576000848401525b50505050565b6000601f19601f8301169050919050565b6118ec81611886565b81146118f757600080fd5b5056fea365627a7a72315820f0b69d65976a1c173865c04551e9fdc775171ba5363ce1abaf3b8bb0c9c893596c6578706572696d656e74616cf564736f6c63430005100040",
  "source": "pragma solidity ^0.5.0;\npragma experimental ABIEncoderV2;\n\ncontract Voters {\n    uint public votersCount = 0;\n\n    struct VotersData{\n        uint id;\n        string firstname;\n        string lastname;\n        string id_number;\n        string phonenumber;\n        string home_address;\n        string image;\n        string user_id;\n    }\n\n    mapping(uint => VotersData) public voters;\n    VotersData[] public votersArray;\n\n    function addVoter(\n        string memory _firstname, \n        string memory _lastname, \n        string memory _id_number,\n        string memory _phonenumber,\n        string memory _home_address,\n        string memory _image,\n        string memory _user_id\n    ) public {\n        votersCount ++;\n        voters[votersCount] = VotersData(\n            votersCount, \n            _firstname, \n            _lastname, \n            _id_number, \n            _phonenumber,\n            _home_address,\n            _image,\n            _user_id\n        );\n    }\n\n    function getCount() public view returns (uint) {\n        return votersCount;\n    }\n\n    function allVoters() public returns (VotersData[] memory) {\n        for(uint i = 0; i < votersCount; i ++){\n            votersArray.push(voters[i]);\n        }\n        return votersArray;\n    }\n\n}",
  "sourcePath": "C:\\Users\\Cde Pidigori\\Pictures\\decentralizedvoting\\decentralizedvoting\\contracts\\Voters.sol",
  "compiler": {
    "name": "solc",
    "version": "0.5.16+commit.9c3226ce.Emscripten.clang"
  },
  "schemaVersion": "3.4.7",
  "updatedAt": "2022-06-08T19:56:55.940Z",
  "networkType": "ethereum",
  "devdoc": {
    "methods": {}
  },
  "userdoc": {
    "methods": {}
  }
}